:100000000C942A000C943C000C943C000C943C0092
:100010000C943C000C943C000C943C000C943C0070
:100020000C943C000C943C000C943C000C943C0060
:100030000C943C000C943C000C943C000C943C0050
:100040000C943C000C943C000C943C000C943C0040
:100050000C943C0011241FBECFE5D8E0DEBFCDBF1D
:1000600020E0A0E6B0E001C01D92A236B207E1F7A1
:100070000E9416010C945A020C9400008FEE82BB71
:1000800087EA91E60197F1F700C00000809B38C035
:10009000819B38C0829B38C0839B38C08FED82BB68
:1000A00087EA91E60197F1F700C00000809B30C01D
:1000B000819B30C0829B30C0839B30C08FEB82BB62
:1000C00087EA91E60197F1F700C00000809B28C005
:1000D000819B28C0829B28C0839B28C08FE782BB5E
:1000E00087EA91E60197F1F700C00000809B20C0ED
:1000F000819B20C0829B20C0839920C084E4089506
:1001000087E3089588E3089589E3089581E40895D5
:1001100084E3089585E3089586E3089582E40895CD
:1001200081E3089582E3089583E3089583E40895C5
:100130008AE2089580E3089583E2089581E60895B0
:1001400081E602C00E943E008136E1F308958BBB38
:1001500084E088BB2FE986E891E021508040904000
:10016000E1F700C0000018BA2FE986E891E02150BD
:1001700080409040E1F700C00000089588E30E94AD
:10018000A7002FE986E891E0215080409040E1F7F8
:1001900000C0000081E00E94A7002FE986E891E0FE
:1001A000215080409040E1F700C000008FE00E94A5
:1001B000A7002FE986E891E0215080409040E1F7C8
:1001C00000C0000082E80E94A7002FE986E891E0C5
:1001D000215080409040E1F700C0000089E80E9473
:1001E000A7002FE986E891E0215080409040E1F798
:1001F00000C0000081E00E94A70008958BBB85E04D
:1002000088BB2FE986E891E0215080409040E1F7DB
:1002100000C0000081E088BB2FE986E891E0215012
:1002200080409040E1F700C0000008951F93CF93F5
:10023000DF938FEF8ABB8FE087BB80EF81BB0E948B
:10024000BE0085E40E94FE008EE40E94FE0084E56C
:100250000E94FE0085E40E94FE0082E50E94FE00EE
:1002600080E20E94FE0080E50E94FE0081E40E9480
:10027000FE0083E50E94FE0083E50E94FE0087E504
:100280000E94FE008FE40E94FE0082E50E94FE00B4
:1002900084E40E94FE0080EC0E94A700C0E0D0E051
:1002A00014C00E94A000182F2FE38DE093E021508E
:1002B00080409040E1F700C00000812F0E94FE00C6
:1002C000FE01E05AFF4F10832196C330D1054CF355
:1002D00081E00E94A70080916000873309F0BAC0D6
:1002E00080916100893309F0B5C080916200843348
:1002F00009F0B0C083E40E94FE008FE40E94FE007B
:1003000082E50E94FE0082E50E94FE0085E40E94D4
:10031000FE0083E40E94FE0084E50E94FE0080E26D
:100320000E94FE0080E50E94FE0081E40E94FE0023
:1003300083E50E94FE0083E50E94FE0087E50E949F
:10034000FE008FE40E94FE0082E50E94FE0084E42D
:100350000E94FE008FEF84BB82E085BB2FE381E328
:1003600097EF215080409040E1F700C0000015BA9F
:1003700081E00E94A70080E80E94A7008CE40E9410
:10038000FE008FE40E94FE0083E40E94FE008BE4E6
:100390000E94FE008FE30E94FE0080E20E94FE00A9
:1003A00080E50E94FE0082E50E94FE0085E40E9436
:1003B000FE0083E50E94FE0083E50E94FE0080E2CD
:1003C0000E94FE0081E30E94FE0080EC0E94A700D4
:1003D0000E94A000C82F2FEF89E698E121508040AD
:1003E0009040E1F700C000008C2F0E94FE00C093F7
:1003F0006100C13391F58FEF84BB81E085BB2FEFA6
:1004000089E698E1215080409040E1F700C000006B
:1004100015BA81E00E94A7008CE40E94FE008FE4E0
:100420000E94FE0083E40E94FE008BE40E94FE0016
:1004300085E40E94FE0084E40E94FE002FEF89E61E
:1004400098E1215080409040E1F700C000000E94F8
:1004500016012CC087E50E94FE0082E50E94FE0086
:100460008FE40E94FE008EE40E94FE0087E40E945A
:10047000FE0080E20E94FE0080E50E94FE0081E412
:100480000E94FE0083E50E94FE0083E50E94FE00BC
:1004900087E50E94FE008FE40E94FE0082E50E9434
:1004A000FE0084E40E94FE000E941601DF91CF91BD
:0804B0001F910895F894FFCF9D
:00000001FF
